:020000022000DC
:1060000000F0002035620200656202006762020053
:10601000696202006B6202006D6202000000000013
:106020000000000000000000000000006F6202009D
:1060300071620200000000007362020075620200DB
:10604000796202007B6202007D6202007F620200D0
:106050008162020083620200697F0300876202009E
:1060600089620200397B0300514D03008F620200F8
:106070009162020093620200956202009762020040
:1060800099620200D58C0300A5B902009F6202004C
:10609000FD8C0300A3620200D1710200A76202001E
:1060A000A9620200AB620200AD620200AF620200B0
:1060B000B1620200B36202007762020077620200FE
:1060C000B5620200B7620200B9620200BB62020060
:0C60D000BD620200BF620200C16202005B
:1060DC00354936480A1A02D0072291438D46344975
:1060EC0034480A1A06D00722914381F30988022208
:1060FC0082F3148830483149314A00F043F8314872
:10610C003149324A00F03EF831483249324A00F007
:10611C0039F832483249334A00F034F832483349BE
:10612C00334A00F02FF833483349344A00F02AF848
:10613C0033483449344A00F025F8344834490022B5
:10614C0000F02BF833483449002200F026F833488D
:10615C003349091A082903DB00220260043001606C
:10616C001F482049884205D00268043003B4904788
:10617C0003BCF7E700208646EC4600200021294AA4
:10618C009047FEE7884207D0521A05D003780130B9
:10619C000B700131013AF9D17047884202D002707C
:1061AC000130FAE77047000000F0002000E8002002
:1061BC0000F0002000F0002024FF0300A02D0020A0
:1061CC00682F0020C4620200C4620200C0E7030012
:1061DC0024FF0300A02D0020A02D002078E8030050
:1061EC0078E8030078E8030078E8030078E8030017
:1061FC0078E8030078E8030078E8030024FF030044
:10620C00EC000400682F0020682F0020682F00206D
:10621C00486200204862002048620020486200204A
:10622C0048660020FD67020008484FF007018843CC
:10623C008546074880470748016841F470010160B2
:10624C00BFF34F8FBFF36F8FFFF742BF00F00020FB
:10625C006984030088ED00E0FEE7FEE7FEE7FEE759
:10626C00FEE7FEE7FEE7FEE7FEE7FEE7FEE7FEE7FA
:10627C00FEE7FEE7FEE7FEE7FEE7FEE7FEE7FEE7EA
:10628C00FEE7FEE7FEE7FEE7FEE7FEE7FEE7FEE7DA
:10629C00FEE7FEE7FEE7FEE7FEE7FEE7FEE7FEE7CA
:1062AC00FEE7FEE7FEE7FEE7FEE7FEE7FEE7FEE7BA
:0862BC00FEE7FEE7FEE700BF6C
:1062C40041DF7047014B1B680B807047902F002003
:1062D4002DE9F04188B004AF64212F4801F06AF839
:1062E40009F033FBB8B92D4B1B78D3B12C4811F00E
:1062F400A3FA01F08FF92B4B1B6813F4804F46D09F
:10630400294B1B68032B42DDE8468AB00DF1100CC3
:106314006646002326E0254A4FF4807112F074FD8E
:10632400E1E7234A3B1D07CA83E80700184600F04B
:10633400EDFF0028DAD01D4A40F20B1112F064FD83
:10634400D4E7C25C4FEA121E59001A4C256815F8AE
:106354000EE006F813E002F00F0201312468A25C9B
:10636400725401330F2BECD900238CF82030124BDC
:10637400D3F80435CDF808C0104A0192104A0092AF
:1063840040F211120F49042006F076FAC546103780
:10639400BD46BDE8F08100BF19660200682F0020E9
:1063A4008CE80300D82E0020D42E0020B4E903008A
:1063B40078E80300DC2E002000B000401CEA030053
:1063C4002CEA030015EA030000B585B0184B1B68DE
:1063D40013F4804F03D0174B1B68032B0EDC03A868
:1063E4000CF0E8FE124B1B6813F4804F03D0114BE2
:1063F4001B68032B0DDC05B05DF804FB0E4BD3F8D2
:1064040004350E4A0092CE220D49042006F034FAD7
:10641400E5E7094BD3F80435BDF80C200192094A8D
:106424000092D2220649042006F026FAE3E700BFD0
:10643400D82E0020D42E002000B0004080E90300B4
:1064440015EA03009CE9030008B50A4B196001F53D
:106454000041094B1A8801FB02F1084A82FB013210
:106464000A44C917C1EBE23292B20021044811F088
:10647400C3F808BD902F00208C2F002001800080DD
:106484008CE8030000B583B00C4B1B6813F4804FF9
:1064940003D00B4B1B68032B04DC09F0E1FA03B0B7
:1064A4005DF804FB074BD3F80435074A00928622B3
:1064B4000649042006F0E0F9EFE700BFD82E0020DB
:1064C400D42E002000B0004064E9030015EA030064
:1064D40070B584B00446424B1B6813F4804F03D05C
:1064E400404B1B68032B08DC012C1CD08CB1032C03
:1064F40024D0012C27D904B070BD3B4BD3F804350C
:1065040001903A4A009295223949042006F0B4F9E0
:10651400EAE7384A1368A3F5804337498B42B8BF8A
:106524000B461360E5E7334A136803F5804347F6E7
:10653400FF718B42A8BF0B461360DAE709F044FAF7
:10654400FFF7A0FFD5E72B4B1B6803F500432B4A4D
:10655400128803FB02F32A4A82FB03121A44DB1754
:10656400C3EBE23292B20021264811F045F82648E6
:1065740000F07CFD04461A4B1B6813F4804F03D0D3
:10658400184B1B68032B16DC002CB4D0144B1B686F
:1065940013F4804FAFD0134B1B68012BABDD124BB0
:1065A400D3F804350194194A0092BE2210490220FE
:1065B40006F062F99FE70C4BD3F804550D4B1E68A7
:1065C4000021104811F058F802900196104B0093E6
:1065D4002B46BB220649042006F04EF9D4E700BF3F
:1065E400D82E0020D42E002000B0004094E80300F0
:1065F40015EA0300902F00200080FFFF8C2F00205D
:10660400018000808CE80300A02D0020C4E8030072
:10661400A8E803003038042800D9704708B5FFF70C
:1066240057FF08BD08B503781C2B00D008BDFFF741
:1066340029FFFBE700B58FB0174BDB680EA941F8C3
:10664400143D04220AA800F0EBFED0B92022002158
:10665400684618F04EF801238DF8003007238DF8B2
:1066640003308DF808300AAB03930C4B04930C4BA6
:1066740008930C49684609F0BDF938B90FB05DF8C4
:1066840004FB094AE02112F0BFFBDFE7064AE921D7
:1066940012F0BAFBF2E700BF78E8030029660200B3
:1066A400B1670200682F0020B4E9030000B585B08B
:1066B4002A4A04214FF4C04006F0C2F8284B1B6854
:1066C40013F4804F03D0274B1B68032B21DC12F0FB
:1066D40017FB48BB244B1869039000F085FD40BBB1
:1066E400FFF7A8FF00222149214810F0CFFF28BB63
:1066F4001F4810F0C8FF1F4B1880194B1B6813F478
:10670400804F03D0174B1B68032B1ADC05B05DF8D0
:1067140004FB194BD3F80435184A0092EF221849A8
:10672400042006F0A9F8D2E7164AF12112F06CFB16
:10673400D0E7144AF42112F067FBD1E711F0AEFF61
:10674400D6E70D4BD3F8043501900F4A0092FA2294
:106754000B49042006F090F8D8E700BF19C80200DE
:10676400D82E0020D42E002078E80300382E0020F4
:106774008CE803008C2F002000B00040F4E80300F4
:1067840015EA0300B4E9030024E9030008B5002175
:10679400044800F089FC00B908BD034A7F2112F0C7
:1067A40033FBF9E7A02D0020B4E9030000B583B062
:1067B4000C4B1B6813F4804F03D00B4B1B68032B4B
:1067C40004DCFFF7E3FF03B05DF804FB074BD3F8E9
:1067D4000435074A0092D7220649042006F04CF8F3
:1067E400EFE700BFD82E0020D42E002000B00040D8
:1067F40044E9030015EA030008B5FFF757FFEFF378
:10680400108572B6174B9B689BB9164A0123936097
:10681400154BD3F88010154801401160C3F880006F
:10682400D3F8841051604FF0FF32C3F88420002461
:1068340000E0012405B962B6FFF74AFD094B9B68E5
:106844006BB164B9EFF3108372B6064A1068064957
:106854000860506848600021916003B962B6FFF790
:106864002FFDFCE7E060002000E100E0FC06FFBD36
:1068740008B5034B53F820300846984708BD00BFBD
:1068840058EB030008B5034B53F8203008469847EB
:1068940008BD00BF68EB0300C06F003018BF0120C3
:1068A400704790F88030012B03D9022B06D00020CA
:1068B4007047806F003018BF01207047836F013B21
:1068C40013F1030F04D8B0F984301BB900207047CA
:1068D400002070470120704710B582B00446303064
:1068E40017F041FD0022A267B4F97630A4F87430A1
:1068F400ADF80030ADF8023001926946204617F039
:10690400F1FBA36EB4F974102046984702B010BD91
:106914002DE9784890F88030022B24D0044630309A
:1069240017F0F5FC4D01420145EAD063121A63EBFE
:1069340001039D0045EA92759600321845EB010368
:10694400DD0045EA5275D1000A46D00B40EA4540C5
:10695400E90BA26F0023994208BF904201D20020A4
:1069640002E0012000E00020BDE878882DE9F04332
:1069740083B0044690F88030022B38D0B0F97650BA
:10698400B0F98860AD1BB6B2303017F0C0FC4F01CF
:10699400420147EAD063121A63EB01039F0047EAFE
:1069A40092774FEA820C1CEB000247EB0103D900FB
:1069B40041EA5271D000C20B42EA414205FB02F2A5
:1069C400A56F92FBF5F23244A4F87420A36EB4F9D7
:1069D400741020469847304B1B6813F4804F03D043
:1069E4002E4B1B68042B2FDC03B0BDE8F083B0F8FA
:1069F4008650303017F08BFC4E01420146EAD063DA
:106A0400121A63EB01039E0046EA927697003A1845
:106A140046EB0103D90041EA5271D000C20B42EAAD
:106A24004142C90BB4F98460F71702FB07F301FB79
:106A34000633A2FB06011944A26F002317F01FFDC1
:106A44002844A4F87400C1E7154BD3F8045504F1A5
:106A5400300017F05CFC4C01420144EAD063121A86
:106A640063EB01039C0044EA92749600321844EBF1
:106A74000103D90041EA5271D000C20B42EA4142FB
:106A84000192084B00932B464FF49B720649052054
:106A940005F0F2FEA8E700BFD82E0020D42E002077
:106AA40000B0004044EB030038EB03002DE9F04351
:106AB40083B004461546354B1B6813F4804F03D04E
:106AC400334B1B68032B35DCE36E04F17401204661
:106AD4009847B4F974302B80B4F976306B8094F80D
:106AE4008030022B32D004F13006304617F00FFC10
:106AF4004F01420147EAD063121A63EB01039F007E
:106B040047EA92774FEA820C1CEB000247EB010341
:106B1400DF0047EA5277D1000A46D00B40EA4740EB
:106B2400F90BA46F0023994208BFA04213D300239A
:106B34006B600DE0174BD3F80435174A00924FF4FD
:106B4400C3721649042005F097FEBDE7A36F6B607E
:106B540003B0BDE8F083304617F0D9FB4E01420183
:106B640046EAD063121A63EB01039E0046EA92766A
:106B740097003A1846EB0103D90041EA5271D0005C
:106B8400C20B42EA4142A21A6A60E1E7D82E002011
:106B9400D42E002000B0004018EC030038EB0300B2
:106BA4002DE9F04983B0064690F88030022B59D085
:106BB400D0F88420002AB8BF5242B36F184600218F
:106BC4005C01DD0EE41A65EB0105AB0043EA947346
:106BD400A700C71941EB03084FEAC80343EA5773F8
:106BE400FC00984600232046414617F0E1FB04468A
:106BF4000D46002908BFB0F57A7F45D23C4B1B688F
:106C040013F4804F03D03B4B1B68032B30DC212251
:106C14000023C6E90E23364B1B6813F4804F03D0C0
:106C2400344B1B68032B55DC3046012300F8303FFE
:106C340017F070FB98B12E4B1B6813F4804F0ED0E5
:106C44002C4B1B68002B0ADD2B4BD3F804352B4A45
:106C5400009240F21F122A49012005F00DFE03B0F4
:106C6400BDE8F089B0F98420002AB8BF5242A4E7F5
:106C7400214BD3F80435234A00924FF487722049FC
:106C8400042005F0F9FDC2E7194B1B6813F4804F8B
:106C940003D0184B1B68032B10DC4FEAC53848EAB5
:106CA4005448E703184A0023184C0025381948EBC8
:106CB400050117F07DFBC6E90E01ACE70E4BD3F8D6
:106CC4000435134A00924FF48A720D49042005F0EA
:106CD400D3FDE2E7084BD3F80435B26B01920D4AB9
:106CE40000924FF48C720649042005F0C5FD9BE721
:106CF400D82E0020D42E002000B00040D0EA03009B
:106D040038EB030064EA030040420F0020A10700AF
:106D140088EA0300B0EA03002DE9104883B0044672
:106D2400002280F83020C36F4FEA534C4FEAC33B34
:106D34004FF47A7200231BF5FA704CF1000117F03E
:106D440037FBC4E90E0104F1300017F0E3FA90B107
:106D54000A4B1B6813F4804F0DD0094B1B68002BA2
:106D640009DD084BD3F80435074A0092F22207499B
:106D7400012005F081FD03B0BDE81088D82E002065
:106D8400D42E002000B0004044EA030038EB030096
:106D940008B5024603218C3008F036F908BD00001E
:106DA40030B585B00446089D002B37D019465B6882
:106DB400C3670B6841F638018B423BD94FF0FF3370
:106DC4008367B2F90030002B36DD47F6FF73A4F871
:106DD4007630B2F90030A4F88430B4F97430A4F8F1
:106DE4008630022384F880301F4B1B6813F4804FD5
:106DF40003D01E4B1B68032B23DC2246022104F123
:106E04008C0008F001F93DB1B4F974302B80B4F969
:106E140076306B80A36F6B6005B030BDC367036FC2
:106E240033B11B688367B4F97430A4F87630C8E7CB
:106E34008367F8E78367C4E74FF40043A4F8763028
:106E4400C7E70B4BD3F80435B2F90020A16F0391C7
:106E5400E16F02910192074A009240F24A220649E8
:106E6400042005F009FDC8E7D82E0020D42E002008
:106E740000B0004024EC030038EB030030B587B0C9
:106E840004460A9D63B319465B68C3670B6883674E
:106E9400B2F90010A4F87610002384F88030B4F915
:106EA4007430A4F88830CA1AC4F88420194B1B68BB
:106EB40013F4804F03D0184B1B68032B18DC2246B5
:106EC400002104F18C0008F09FF83DB1B4F974304E
:106ED4002B80B4F976306B80A36F6B6007B030BD44
:106EE400C367036F13B11B688367D1E78367CFE779
:106EF4000A4BD3F804350492A26F0392E26F029214
:106F04000191074A00924FF4E3720649042005F008
:106F1400B3FCD4E7D82E0020D42E002000B00040CB
:106F240054EC030038EB0300F0B585B00446174673
:106F34000A9E6BB31A465B68C367136883670123B1
:106F440084F880303A68414D85FB0235AB18D5177B
:106F5400C5EBE335C5EB0545551B201D17F068F956
:106F6400F0B93B4B1B6813F4804F1DD0394B1B68A1
:106F7400032B19DD384BD3F804353A790192374A9B
:106F840000924FF4FB723649042005F075FC0BE0C7
:106F9400C367036F13B11B688367D0E78367CEE7CA
:106FA400B4F97430A4F88830B4F888302B44A4F8C9
:106FB4007630C4F88450264B1B6813F4804F03D0FA
:106FC400244B1B68032B19DC214B1B6813F4804FE3
:106FD40003D0204B1B68032B22DC2246012104F141
:106FE4008C0008F011F83EB1B4F974303380B4F970
:106FF40076307380A36F736005B0F0BD164BD3F881
:107004000435A26F0392E26F02923A680192154A24
:10701400009240F201221249042005F02DFCD3E72E
:107024000D4BD3F80435B4F98820B4F97410B4F9CD
:1070340076000390029101920B4A00924FF4017280
:107044000749042005F018FCC7E700BF0180008051
:10705400D82E0020D42E002000B0004074EB030092
:1070640038EB0300A8EB0300D4EB030010B582B0A7
:107074000446C36E00F17401984704F1300017F020
:1070840072F9B4F97420A4F876200023E367A367A7
:10709400ADF80020ADF8022001936946204617F0B0
:1070A40021F802B010BD0000D8B110B50446826EBC
:1070B400D2B1C26ED2B10E4BC36216F0D5FF0346F5
:1070C40008B1184610BD24640A4B63640A4904F1EC
:1070D4008C0007F061FF04F1300017F057F9034604
:1070E400EFE70E23184670470E23EAE70E23E8E77E
:1070F400F0EC0300956D0200CCEC03004BDF70470D
:1071040010DF704760DF704769DF704710B588B0E3
:10711400274B1B6813F4804F03D0264B1B68032BAB
:1071240010DC254B0793079A0692002303930493DC
:10713400059303A90120FFF7E7FF044668B1204641
:1071440008B010BD1D4BD3F804351D4A00924B22E4
:107154001C49042005F090FBE3E700230493059306
:10716400F8230393069A03A9A120FFF7CDFF044651
:107174000028E4D106A8FFF7C5FF0446069A079B3A
:107184009A42DCD00A4B1B6813F4804FD7D0094BCA
:107194001B68012BD3DD094BD3F8043501920A4A4D
:1071A40000926D220749022005F066FBC7E700BF85
:1071B400D82E0020D42E0020A02D002000B00040A6
:1071C4003CEE030024EE030050EE030000B583B050
:1071D40002E0019803F056FB01A8FFF78FFF002897
:1071E400F7D003B05DF804FB00B585B003901F4BE6
:1071F4001B6813F4804F03D01D4B1B68032B1FDC4B
:107204001C4903A8FFF77CFF0346A8B91A4BE022E8
:1072140083F8162393F816335B09012B20D9042B2A
:1072240021D0164B9B68B3B1144A136843F480030E
:107234001360FFF76BFF0346184605B05DF804FBC7
:107244000F4BD3F804350F4A009275220E490420DF
:1072540005F012FBD4E7084B4FF480021A60E8E70C
:1072640042F20203E8E742F20203E5E7D82E0020E7
:10727400D42E00205974020000E100E0E0600020F8
:1072840000B000408CEE030024EE030008B5012397
:10729400002203494968034812F02CFA08BD00BFD4
:1072A400BC2F0020B031002008B50378072B10D084
:1072B4000A2B19D0022B00D008BD114B1B782BB11F
:1072C400104B1B68002BF7D09847F5E7FFF7DEFF5C
:1072D400F2E710220B4B99680B4812F095FA00283C
:1072E400EAD011F0DBF9E7E78168C06808F031FB08
:1072F40018B9034B01221A70DEE711F0CFF9F8E751
:10730400B82F0020BC2F0020B031002010B586B06B
:107314000446194A03AB07CA03C323F8022B120C11
:107324001A70164B94E8070083E807000AB314495F
:10733400144812F0C3F9034610B1184606B010BD44
:10734400114B009303AB0E4A0E49104812F072F928
:1073540003460028F1D10E4813F038FD01460B48CE
:1073640012F094F903460028E7D1FFF78FFF034694
:10737400E3E70723E1E700BFA8EE0300BC2F0020EA
:10738400C82F0020E4320020AD720200B03100208A
:10739400E82F002008B5064B1B683BB10EF09AFDA0
:1073A400002803DB024B1B689847F7E708BD00BFC2
:1073B4002433002010B50C46144B1860144A0121E4
:1073C400144811F0CDFCA0B9610CE00341F26F72D6
:1073D40000238B4208BF824210D24FF47A720023FA
:1073E40016F0E6FF014600220B4811F0CFFC38B935
:1073F40010BD0A4A462111F007FDE5E70521F2E731
:10740400064A472111F000FDF2E700BF24330020B3
:1074140099730200B4EE030028330020B8EE030091
:10742400082A10D838B51446054617F039F9C4F1BE
:1074340008020021281917F05CF9044B03CBA8605B
:10744400E960002038BD0920704700BF60000010CB
:107454000620704700B587B041F20103984245D039
:1074640020D944F20103984256D044F202039842D0
:107474006DD1454B1B6813F4804F1ED0434B1B68E2
:10748400002B1ADD424BD3F8043510880390526860
:10749400029201913F4A00925F223F49012005F088
:1074A400EBF90AE0012852D1374B1B6813F4804FE3
:1074B40003D0364B1B68002B0BDC4FF0A0434FF47A
:1074C400F012C3F81825C3F80C25EFF3108372B635
:1074D40053E02F4BD3F80435029201912F4A0092C6
:1074E40054222D49012005F0C7F9E6E7264B1B6815
:1074F40013F4804FE1D0254B1B68002BDDDD244BBA
:10750400D3F8043502920191254A00925722224968
:10751400012005F0B1F9D0E71B4B1B6813F4804F31
:10752400CBD01A4B1B68002BC7DD194BD3F804359D
:107534001068049050680390029192680192194A6D
:10754400009269221449012005F096F9B5E70E4B23
:107554001B6813F4804FB0D00C4B1B68002BACDDC0
:107564000B4BD3F8043501910F4A00926D220A495E
:10757400012005F081F9A0E730BF0C4B1B78002BEC
:10758400FAD107B05DF804FBD82E0020D42E0020D9
:1075940000B00040A0EF03004CEF030060EF0300D5
:1075A4007CEF0300C0EF0300E4EF0300842E00200F
:1075B40000B583B00023ADF80030054B01936A4653
:1075C400014644F20200FFF745FF03B05DF804FBF7
:1075D400E0EF030010B40346044C006859689A684D
:1075E400DB680FC45DF8044B704700BF48330020CC
:1075F400064B074A92E8030083E803000833443249
:1076040092E8030083E80300704700BF483300207A
:10761400600000100048704748330020002308E051
:10762400074901EBC30000224280426001F8332085
:1076340001331F2BF4D9034B00221A60704700BF9B
:10764400583300205834002030B405460F4B1B68D3
:1076540000240AE01F230E4A12F83300A0B102EB03
:10766400C3025288AA4207D001341F2C0BD85A1ED9
:10767400002BEFD01346EEE7054A02EBC302526833
:107684008A42F1D100E0002030BC70475834002019
:107694005833002030B40A4A13680A4C04EBC3057B
:1076A40068806960012104F833100B441360202BB7
:1076B40001D030BC7047134600221A60F9E700BFBE
:1076C4005834002058330020C0F30C038B4202D3FB
:1076D400C91A08447047C91A0844A0F500507047F5
:1076E400C37D002B42D083780A7802F0800203F035
:1076F4007F0313430B7002780B7803F07F0343EA94
:10770400C2130B700378002B41D030B44378082B9C
:1077140014BF002201224B7803F07F0343EAC21313
:107724004B70858803F08003C5F3861423434B70A4
:107734008A7802F0030242EA8502D2B28A7085791D
:1077440002F0FC02C5F3C10422438A70CB7803F033
:107754001F0343EA4513DBB2CB70C27903F0E003A5
:1077640002F01F021343CB7030BC704783780A7851
:1077740002F0BF029B0103F0400313430B70C27875
:1077840003F0C00302F03F0213430B70B3E77047EA
:107794000023032B22DC10B402E00133032B19DC99
:1077A4000F4C6C2202FB034292F84420012AF4D1CC
:1077B4006C2202FB0342948AC2899442EDD1084CA4
:1077C4006C2202FB034292888A42E6D16C2202FBBD
:1077D400034000E000205DF8044B70470020704730
:1077E400D0340020002300E00133032B13DC0B49C9
:1077F4006C2202FB031292F84420022AF4D16C2278
:1078040002FB0312918A828A9142EDD103486C22D1
:1078140002FB030070470020704700BFD0340020F3
:1078240008B10820704704207047000038B50546A9
:107834000C46CB695B78C370CB691B7883F001037A
:107844008370CB694362087B022814D0FFF7E8FFFA
:107854006870E27A32B9A18AC0F10F03994201DC5F
:10786400082831D0A18A0346C0F10F00814207DC09
:1078740042B3012205E0154B987DFFF7D1FFE7E7FE
:1078840001222A7062B1A28A13440B33104A82FB8C
:107894000312DB17C3EB6203013BEB710023AB71F3
:1078A4000023EB7505F10C0294E8030082E8030061
:1078B400A2692A622289AA82A27AAA75226AAA6283
:1078C400184638BD0022DCE70720FAE7B834002068
:1078D400ABAAAA2A30B403460C4609788170002169
:1078E4004162A1680B2903D8217BF1B1012100E099
:1078F400012119700020587029B1A1680731C90805
:107904000139D97198710121D97503F10C0504F17C
:10791400100103C985E80300E1899982A16919620C
:10792400217F99759A6230BC70470021E1E700001D
:107934000021164B1B688B4226D90023144A02EB04
:10794400C10252689A421DD910B4114A52F831202A
:1079540002EBC30412F8332082420DD001330C4AE7
:1079640002EBC10252689A42EFD80131074B1B68FF
:107974008B4205D90023F2E760685DF8044B704739
:107984000020FAE70131D4E7002070475C3400207E
:107994006034002070B58CB006460D4614462C2287
:1079A400002101A816F0A5FE0E238DF80430ADF8D1
:1079B40008604FF0000365F300038DF80A308DF87A
:1079C4000B4001A801F0F8F80CB070BD30B58DB0D3
:1079D40005460C462C22002101A816F08AFE0F232E
:1079E4008DF8043002958DF80C4001A801F0E4F8FC
:1079F4000DB030BD00B58DB048B913F1020F06D0FB
:107A040001228DF80420029301A801F0D5F8034B5C
:107A1400186803F0F5FE0DB05DF804FB6C3400202B
:107A24002DE9F041054688460378BBB10D4B1C682F
:107A3400621C1A6004F00704AB8A0B4F07EBC40600
:107A44007380A988A869FFF73FFE7060EB6903F0B3
:107A54000103737007F83480BDE8F0817846FFF7BE
:107A6400A7FDE3E7B43400207434002070B5064663
:107A740003784BB1B58A347F04F00104B188B0694E
:107A8400FFF722FE002304E07846FFF791FDF1E7BB
:107A94000133072B15D80C4A02EBC3025268824209
:107AA400F6D1094A02EBC3025288AA42F0D1064A2F
:107AB40002EBC3025278A242EAD1034800EBC300AE
:107AC40000E0002070BD00BF74340020F0B40D68E5
:107AD4004C688F68CE68D5601461576196610D69F2
:107AE4004C69D56114620378DB091370D17DF9B157
:107AF400037803F07F0393700023537013789BB1D2
:107B040043789B0103F4FE53817843EA9103938005
:107B14008378DB0003F01803C17843EA51139371AF
:107B2400C37803F01F03D37100235362F0BC704782
:107B34000178C1F380119170017801F03F01D17097
:107B440043B190F90130002B02DB04235370D5E7D5
:107B54000823FBE704235370D0E770B50C461E4698
:107B640003788BB104252A44A26000F10C0323603E
:107B7400836A6360204604F0A5F9024610B92369BC
:107B84001D443560104670BD0125ECE72DE9F04138
:107B94008EB00D4616461C46804600282DD0002D7A
:107BA4002FD0002C31D0636A0233059304F10C000A
:107BB400A378002B2DD00121627801AF3B46082A1F
:107BC40014BF0022012203F060FF0697CDF81C8049
:107BD400B2B2ADF820200B9515440C9563788DF85E
:107BE4003430237B022B16D00023ADF8283005A8AF
:107BF40003F043FF0EB0BDE8F0817846FFF7D8FCF0
:107C0400CDE77846FFF7D4FCCBE77846FFF7D0FC06
:107C1400C9E70221D0E723692BB123690993102313
:107C2400ADF82830E3E77846FFF7C2FCF5E72DE925
:107C3400F04186B004460D46C37D002B3ED0082695
:107C440005FB06F8E379AB423AD0A5716B463246A0
:107C540001A92046FFF781FF074648BB4DB994F8B8
:107C64004F3033B9A369C3F30C03A380012384F811
:107C74004F30E37D7BB994F84E3063B92DBBB4F833
:107C84004610627823468A1AA16E0846FFF77EFFE3
:107C9400012384F84E3005992046FFF721FDA16E9B
:107CA40032464144009816F0FBFC01A804F024F984
:107CB400B7FA87F0400906B0BDE8F0810C26BFE7AB
:107CC400B4F84660A6EB0806BFE77846FFF770FCF9
:107CD400D5E770B5054690F84C40002605E001361E
:107CE400631C85F84C300134E4B2EB79A3420AD327
:107CF400AA6C0123A3401A42F5D121462846FFF776
:107D040096FF0028EBD1304670BDF0B587B04578BA
:107D14001544C37DDBB10B239D4221D816460F4683
:107D240004466B462A4601A9FFF717FF0546C0B96A
:107D340005992046FFF7D4FCE37D53B1324639461A
:107D4400009816F0ADFC01A804F0D6F809E00F2362
:107D5400E2E72346324600993846FFF717FFF2E779
:107D64000925284607B0F0BD10B5044690F8443004
:107D7400012B0ED1237B012B0FD00C4BDB68A363AB
:107D840003F098F8A16B014404F12C0003F022F8ED
:107D940010BD7846FFF70CFCECE7A37D034AD168DD
:107DA400126902FB0313A363EAE700BFB83400209F
:107DB40038B5002400E00134032C13D80A4A6C239C
:107DC40003FB042393F84430012BF4D16C2505FB09
:107DD40004252846FFF77DFF0028ECD02846FFF74E
:107DE400C3FFE8E738BD00BFD034002038B50446EF
:107DF40090F84430022B02D07846FFF7D9FB054BAC
:107E04001D6803F057F8411904F12C0002F0E2FF59
:107E140038BD00BFB834002038B5044690F844306B
:107E2400022B02D07846FFF7C3FB084B5D7D5A68EE
:107E34009B6803FB052503F03DF8411904F14C0050
:107E440002F0C8FF012384F8643038BDB834002040
:107E540010B504460D4B1B68806E984704F12C0046
:107E640002F0A0FF94F84430022B0AD06C220021C7
:107E7400204616F03EFC002084F8440002F078F816
:107E840010BD04F14C0002F08DFFEFE770340020C8
:107E940010B504460121FFF7C3FD2046FFF7D8FFC4
:107EA40010BD10B58CB0044690F84430012B02D0BC
:107EB4007846FFF77DFB01238DF80430236D029390
:107EC40001A800F079FE2046FFF7C2FF0CB010BDF8
:107ED4002DE9F04104460E4615461F46531EDBB2FB
:107EE400012B46D8A36E13B17846FFF761FB2E4BE6
:107EF4001B6838469847A066002852D0334622466D
:107F040006F12001D3F80080D3F804E0D3F808C0C8
:107F1400D868C2F80080C2F804E0C2F808C0D06093
:107F2400103310328B42EDD1186859689B68106089
:107F3400516093600023A364A4F84670B188B069CB
:107F4400FFF7C2FBA061012D17D06FF00103A362FC
:107F5400002384F86430154B6365E465144B636354
:107F6400E463012002F004F884F844500120BDE8E1
:107F7400F0817846FFF71CFBB4E70E4B1B7D84F8B9
:107F84004D30002384F84E3084F84F3084F84C3060
:107F9400B36A23656FF00103A362074B6363E46371
:107FA400DFE70020E3E700BF68340020FF8A020017
:107FB400E5800200B8340020F180020030B583B0BF
:107FC400C3790133C27D92B1082505FB03F582B163
:107FD4004FF48073AB422AD21E4B1B6813F0040F7C
:107FE40036D01D4B1B68002B06DC00242DE00C252D
:107FF400EBE74FF4C073EDE7184BD3F80435019564
:10800400174A009240F263221649012004F034FC1E
:1080140000241AE0144C6C2303FB02442B46022276
:1080240001462046FFF754FF78B900240DE00022F2
:10803400032A09DC0C4B6C2404FB023494F844300E
:10804400002BE7D00132F3E70024204603B030BD13
:108054000024FAE7D82E0020D42E002000B00040DF
:1080640070F0030062F00300D034002030B585B016
:108074000D460446A8B100212046FFF7D1FC29464D
:10808400206DFFF7A3FC2046FFF7E2FE0F4B1B68B1
:1080940013F0040F03D00E4B1B68032B05DC05B053
:1080A40030BD7846FFF784FAE5E70A4BD3F8043588
:1080B40094F8442002950192074A00924FF4D67234
:1080C4000649042004F0D8FBE9E700BFD82E0020BD
:1080D400D42E002000B0004000F0030062F0030042
:1080E40008B508460021FFF7C1FF08BD10B50C46CE
:1080F40091F84430012B09D194F84D307BB9237B9E
:10810400012B07D02046FFF7CCFE10BD7846FFF7C1
:108114004FFAF1E701212046FFF7A8FFF5E7013BFD
:1081240084F84D30002384F84C302046FFF7D1FD0D
:10813400EBE70000062900D0704770B582B0034613
:108144000178890101F4FE5140789D78DC7824049B
:1081540044EA05641D7944EA05245B791C4341EA39
:1081640090011046FFF714FB0546B8B1866C264310
:10817400866444B3037853B3EB795A1C01239340C8
:10818400013B9E4227D0002385F84C302846FFF758
:10819400A0FD2846FFF7E8FD02B070BD104B1B6838
:1081A40013F0040FF8D00F4B1B68012BF4DD0E4BBA
:1081B400D3F804350D4A009240F2B9420C4902202A
:1081C40004F05AFBE8E70321FFF750FFE4E77846A1
:1081D400FFF7EEF9D0E72846FFF763FEDCE700BFC0
:1081E400D82E0020D42E002000B0004084F00300DC
:1081F40062F003002DE9F04389B080460F4614462F
:108204001E4695780DB32846FFF792FB8146C8B108
:108214008DF80050236A0693A38AADF80E3004ABA0
:1082240004F10C0292E8030083E80300A37D8DF8B7
:108234001C30CDF80480029723788DF80C30314639
:108244006846C84709B0BDE8F083FFF773FFF9E754
:1082540000B585B000238DF80F3098B10346084669
:1082640002330B600DF10F0103F00BFC9DF80F308E
:1082740043B10D4B1B6813F0040F03D00B4B1B6869
:10828400032B04DC9DF80F0005B05DF804FB084BDC
:10829400D3F80435074A009240F2EB220649042041
:1082A40004F0EAFAEEE700BFD82E0020D42E002016
:1082B40000B00040C4F0030062F003002DE9F04375
:1082C4008FB004460E4615461F46D0F81890037822
:1082D40023B181884846FFF7F7F9A06104F10C0047
:1082E400A378002B3AD0012162780DF12808434687
:1082F400082A14BF0022012203F0C7FBC4F8189017
:10830400CDF8088003966378EA1A92B2ADF810208B
:108314003244089207978DF824300023ADF81830C2
:10832400237B022B1CD0A3786BB3237B022B1BD0A3
:108334002546002345F8243F2A46E178206A0BF0BD
:1083440079FF606A98B101A9FFF782FF00283AD14A
:108354002A46E178206A0BF06DFFF2E70221C3E7B9
:108364001023ADF81830DEE723690593E0E7237B9B
:10837400022B2CD104F10C01E0890CF009F800283F
:10838400D3D1052020E000236362237B012B0DD091
:108394002146002341F8243FA08A0BF068FF01A97D
:1083A400606AFFF755FFA0B100200DE004F124013D
:1083B400E0890BF05CFF01A9606AFFF749FF002820
:1083C400E6D0002000E000200FB0BDE8F0830520D7
:1083D400FAE70520F8E7000070B5F0B00D46144642
:1083E4001E4610AB0A4601462046FFF767FFA0B1C0
:1083F4001F4B1B6813F0040F37D01E4B1B68052B53
:1084040033DD1D4BD3F804351C4A00924FF4A562AA
:108414001B49062004F030FA27E003AB01228DF853
:108424000C20A28AADF80E20002204928DF81420AC
:1084340010AA06926278AD1AADF81C5008AA93E807
:10844400030082E803000AAB04F10C0292E8030083
:1084540083E80300A37D8DF83830236A0C93636AA4
:108464000D930F9605A800F0A7FB70B070BD00BF78
:10847400D82E0020D42E002000B00040E8F00300E5
:1084840062F0030010B5D47D14B9FFF7A5FF10BD49
:10849400FFF7B0FEFBE700002DE9F04385B004AF21
:1084A40043781344C47D94B14FF480749C4273D3D5
:1084B400EFF3108C72B60024032C10DC3B4E6C25B9
:1084C40005FB046595F8445025B10134F4E74FF4F5
:1084D400C074EBE735466C2606FB045400E0002428
:1084E400BCF1000F00D162B6002C5AD015460E46DE
:1084F400014601222046FFF7EBFC002853D02A4610
:108504003146A06E16F0CCF8294B1B6813F0040F0B
:108514003AD0284B1B68032B36DD6D46B4F846E091
:108524004FEA4E030833DB08A5EBC3039D460DF168
:108534001008C446002312E0A26ED25C4FEA12195E
:1085440059001D48066816F809600CF8136002F01B
:108554000F0201310068825C0CF80120013373457D
:10856400EAD3002308F81E30144BD3F80435CDF8B1
:108574000880134A0192134A009240F2F7321249DA
:10858400042004F079F9AD462046FFF7A2FB20460B
:10859400FFF7EAFB002000E009200437BD46BDE8F0
:1085A400F0830420F9E70420F7E700BFD03400206B
:1085B400D82E0020D42E0020DC2E002000B0004055
:1085C400B4F003002CEA030062F0030070B5044623
:1085D4000D461646808A01F091FF01281AD1237BAB
:1085E400D3B1022B0BD094F91630002B16DB237871
:1085F40053B9324629462046FFF787FB0BE023692F
:10860400002BF0D1102006E0324629462046FFF721
:1086140043FF00E0102070BD1020FCE70720FAE7BC
:1086240008B50549054800F04FF800B908BD78467B
:10863400FEF7BEFFFAE700BF71E50300DDE40300C7
:1086440010B5FFF7EDFF4FF4D8720021134816F070
:1086540050F805F0A7FA0024114B1C604022214673
:10866400104816F046F8104B104A1A60104A5A6027
:108674004CF250329A600F49D9601A6104221A757B
:108684009C7508225A750C4803F09AF80B4B186035
:108694000B4B1C600B4805F08BFB10BDD034002045
:1086A400B434002074340020B8340020809698003C
:1086B400F049020020A10700B58802006C340020B4
:1086C4005C340020F979020008B50346B0FA80F062
:1086D40040090A46B1FA81F14909884210D14BB1E7
:1086E400EFF3108072B608490B60084B1A6048B962
:1086F40062B606E0002AF3D1FFF792FF002000E003
:108704000E2008BD0020FCE76834002070340020EF
:10871400C0B110B58CB004460369B3B1C369B3B139
:108724008369B3B1014601A8FFF780F8034610B18D
:1087340018460CB010BDA28A216901A8FFF746FFB4
:108744000346F5E70E23184670470E23F0E70E2381
:10875400EEE70E23ECE7D0B110B58CB004464068C8
:10876400B8B1A269BAB1207C022816D0B8B194F984
:108774000020002A15DB0A46214601A8FFF7AAF8C3
:10878400A268616801A8FFF721FF0CB010BD0E209C
:1087940070470E20F9E70E20F7E71020F5E71020C8
:1087A400F3E70720F1E70000037B012B01D0002051
:1087B400704710B58AB000228388C3F386148DF8FD
:1087C40000409B008DF801300B0E8DF802300B0C2D
:1087D4008DF803300B0A8DF804308DF8051006234C
:1087E400049301238DF81830838AADF81A30079268
:1087F4008DF80820CDF80CD0036A08938DF8142066
:10880400C389ADF81630837D43B98DF824206FF009
:10881400010102A8FFF79FFF0AB010BD024B5B7D68
:108824008DF82430F3E700BFB834002038B50024B5
:108834000BE01E4A6C2303FB0423DB795A1C01233F
:108844009340013B9D4228D00134032C2CD8174A75
:108854006C2303FB042393F84430022BF4D16C23E0
:1088640003FB042393F86430022BEDD16C2000FB4E
:108874000420816CFFF798FF0028E5D10B4A6C2394
:1088840003FB04F3D11881F864008D6CD35C002BD6
:10889400CFD17846FEF78CFECBE7044B6C2000FB6F
:1088A4000430FFF7F5FACFE738BD00BFD03400201D
:1088B40008B5FFF77DFAFFF7B9FF012008BD0000F6
:1088C4002DE9F04182B007460E46144698461046FC
:1088D400FEF788FF054620B1A28883889A4210D308
:1088E40012D82046FFF7C2F8B8B103784BB1237809
:1088F4007BB1E1794B1C0121994001392046FFF7F6
:1089040053FF02B0BDE8F0810521FFF7AFFB00255E
:10891400E7E77846FEF74CFEEBE7002D4FD0464BD9
:108924001B6813F0040F03D0444B1B68032B55DC66
:108934002846FFF75BFA2B7B012B5DD0AA6CA1794B
:1089440001238B401A42DCD11343AB64A279EB7947
:108954009A4259D0E37D002B61D00823B34260D101
:10896400AB6EA079E27D002A60D0082432463946F5
:1089740004FB003015F094FEAC6C2B78002B57D020
:10898400EB795A1C01239340013B9C42B9D1022349
:1089940085F86430A96C2846FFF706FF0446434671
:1089A4002A46B5F84610A86EFFF76CFD002CA8D136
:1089B400002385F864302846FFF76AFAA1E72046C9
:1089C400FFF7FCFA05460028A9D100212046FFF74D
:1089D400EBFE02210020FEF7F9FF92E7184BD3F8D3
:1089E4000435A2790192174A009240F2A72216494F
:1089F400042003F041FF9BE795F86430002B9DD1E0
:108A04002846FFF709FA99E79BB2E27D2AB10822CA
:108A140003FB0263A5F84630A2E70C22F8E70C2317
:108A24009CE704212846FFF721FB6AE70C249DE715
:108A34007846FEF7BDFDA3E7D82E0020D42E0020F3
:108A440000B00040D8F0030062F003002DE9F041CB
:108A54008EB000284DD00546002A4CD098461446C6
:108A64000F4600220C920D920CA960880BF090FC2A
:108A740020B9002630460EB0BDE8F081226902F02C
:108A84000102E168208905F059F808B10026F1E7F0
:108A9400226902F00102E168208905F01BF806460C
:108AA400C0B901AA21462846FFF710F804AB0EAA64
:108AB40012E9030083E8030002F040FE9DF804304D
:108AC40083B1434601AA391F281DFFF7F9FE02F0BE
:108AD40055FECFE72169002201F001012089FEF74C
:108AE40059FFC7E7434601AA791E681CFFF7CAFC71
:108AF400EDE70E26BEE70E26BCE710B50C4691F84E
:108B04004430022B0BD1022384F86430A16C20463C
:108B1400FFF74AFE10B9002384F8643010BD78468C
:108B2400FEF746FDEFE70000F8B500B30546164B27
:108B34001F68F7B90E463C46B4420ED205EBC40397
:108B44005B68CBB115F8340010F0800F16D1B8B1C2
:108B5400FEF7EEFEB0B90134EEE70C4B43F83750A4
:108B640003EBC7035E607B1C074A136002E00E2719
:108B740000E004273846F8BD0E27FBE70B27F9E78A
:108B84000F27F7E70F27F5E75C3400206034002057
:108B9400084B196861B110B501E021463CB10C687D
:108BA4000B79002BF9D0034803F0CFFDF5E710BD96
:108BB400704700BF8436002038B5054630B1104BED
:108BC4001C68ACB10F4B01221A7004E07846FEF722
:108BD400EFFCF4E724683CB12379002BFAD154F874
:108BE400043C28469847F5E7064B1B78022B00D037
:108BF40038BDFFF7CDFF034B00221A70F8E700BF22
:108C0400843600208036002010B5044630B100239D
:108C14002372211D034803F06DFD10BD7846FEF755
:108C2400C7FCF4E78436002010B5044650B10A4B63
:108C34001B78013BDBB2012B08D9211D074803F047
:108C440084FD10BD7846FEF7B3FCF0E7024B022228
:108C54001A7001232372F4E7803600208436002042
:108C64000A8883689B5A07339BB223F00303134497
:108C74009BB20288043A934200D900230B807047C8
:108C840010B582B004468368CB1A02A921F8023DCC
:108C9400FFF7E6FFBDF80630A068184402B010BD27
:108CA4000088043880B2704743888268D018D15253
:108CB400012383707047826800239370438083800C
:108CC4007047073189B221F0030189B24288838851
:108CD4009A4204D29B1A99421CDC0020704710B5BA
:108CE4009A420FD90488A41AA14215D98B4215D3EC
:108CF400032C03D98368134404229A70002343800D
:108D0400184606E0826813449B784BB9FFF7D3FFFB
:108D1400002010BD042070470020FAE70420F8E783
:108D24000420F6E738B504460D4683688288134468
:108D34008B4202D07846FEF73BFC0023AB70211D2A
:108D44002046FFF78DFFA288A36813449B78042B69
:108D540000D038BD0023A380FBE710B50C46836820
:108D6400428813448B4202D07846FEF721FC00234C
:108D7400A37010BD70B5064615460C46002944D0B4
:108D8400002E46D0B4F1005F08D94FF08053D3F8D9
:108D94000C3103F50023B4EB832F0ED3B4F5000F8D
:108DA40008D94FF08053D3F80C3103F50053B4EBDA
:108DB400832F02D37846FEF7FBFB6B1E2344B3F1EB
:108DC400005F08D94FF08052D2F80C2102F500223E
:108DD400B3EB822F0ED3B3F5000F08D94FF08052B6
:108DE400D2F80C2102F50052B3EB822F02D378465D
:108DF400FEF7DEFB042D10D9358000237380B38089
:108E0400B460043D2580A37070BD7846FEF7D0FBA6
:108E1400B6E77846FEF7CCFBB4E77846FEF7C8FB26
:108E2400EAE738B50446A0B16288A36813449B7886
:108E3400012B12D0A388A1681944EFF3108572B6F0
:108E44008B78032B0DD02046FFF735FF05B962B6AA
:108E540038BD7846FEF7ACFBE6E77846FEF7A8FB9C
:108E6400E8E72046FFF70CFFA368C31A63800023DA
:108E74008370EBE7F8B50E4615460446C0B1DEB183
:108E84006288A36813449B78012B19D0E5B120466E
:108E9400FFF706FFA84219D329462046FFF711FF22
:108EA4000746A0B929462046FFF7FEFE30600EE0D3
:108EB4007846FEF77DFBE2E77846FEF779FBDFE7CD
:108EC4007846FEF775FBE1E7092700E009273846F5
:108ED400F8BD70B50C4616460546B8B1D4B1A378B2
:108EE400012B1BD12388B3421CD3FEB1268002235D
:108EF400A370E9182846FFF7B3FE6A88AB889A4244
:108F040003D0AB68134400229A7070BD7846FEF714
:108F14004FFBE3E77846FEF74BFBE0E77846FEF7C6
:108F240047FBDFE77846FEF743FBDEE77846FEF7CC
:108F34003FFBDBE738B50D46044668B185B1A2882E
:108F4400A36813449A78042A0ED09A78022A13D07C
:108F5400032A16D0052013E07846FEF729FBEDE737
:108F64007846FEF725FBEAE7211D2046FFF778FE49
:108F7400A288A3681344E8E703229A702B600020B8
:108F840038BD7846FEF714FB0020F9E710B5044617
:108F940058B1A088A16801448B78042B09D0887843
:108FA400022814BF0020012010BD7846FEF700FB04
:108FB400EFE72046FFF764FE0146F0E710B50446EC
:108FC40018B1A088A168014407E07846FEF7F0FADA
:108FD400F7E72046FFF754FE01468878C31EDBB24C
:108FE400012BF6D9022814BF0020012010BD38B58A
:108FF4000C46054650B16CB1A378012B0ED0032B5F
:1090040011D121462846FFF78DFE38BD7846FEF77C
:10901400CFFAF0E77846FEF7CBFAEDE7214628468B
:10902400FFF79BFEF1E77846FEF7C2FAEDE7000092
:1090340008B5064B986800221A605A609A60DA6094
:109044001A615A619A6104F09BFB08BD88360020BE
:1090540000B585B00A4BDB6802228DF8002001932D
:109064004FF480530293074A6946012001F0AAF99C
:1090740018B1002005B05DF804FB0120FAE700BF39
:1090840088360020A436002000B585B00A4B1B6842
:1090940002228DF8002001934FF480530293074A73
:1090A4006946012001F08EF918B1002005B05DF881
:1090B40004FB0120FAE700BFA8360020A4360020F4
:1090C400164BDA68137951795B1A03F57F2303F69B
:1090D400FF7302EB03339A4205D002F580520F4B23
:1090E400DA600320704700B585B00D4B1B68012082
:1090F4008DF8000001930B4B0393042302930A4A57
:10910400694601F05FF918B1002005B05DF804FB71
:10911400024B01221A760220F7E700BF88360020AE
:10912400A8360020AC360020A436002000B585B057
:109134000C4BDA680C4B1B68043301208DF80000DB
:109144000192039340F6FC730293084A694601F0C6
:1091540039F928B90120034B187605B05DF804FBF2
:109164000020FAE788360020A8360020A436002024
:1091740000B585B00A4B1B6801208DF800000193EF
:10918400084B039304230293074A694601F01AF932
:1091940018B1002005B05DF804FB0120FAE700BF18
:1091A400A836002094360020A436002010B584B0E0
:1091B400114BDA681478114B1B68043301208DF8C5
:1091C40000000193039202940D4A694601F0FAF8F3
:1091D40080B90A4B1B6804F0FC041C440434064B9D
:1091E4005C61D9680A780A441A6100225A7601201F
:1091F40004B010BD0020FBE788360020A83600200C
:10920400A436002008B50023092B09D8064A52F8D1
:109214002320824201D00133F6E7044A536002E07E
:109224007846FEF7C5F908BD14F10300883600201E
:1092340010B5214BDB6853B11F4B1B7E5BB91E4B32
:109244005B68092B15D97846FEF7B2F911E0784628
:10925400FEF7AEF9F0E77846FEF7AAF9EFE7164B0A
:1092640000225A60012C01D0032C23D1124B1B7E07
:1092740003BB114B5A68114B53F8223098470446EC
:1092840002280DD00328EAD00128EBD10A4A5368FA
:1092940001335360092BE5D97846FEF789F9E1E7F4
:1092A400054B1B7E1BB1044B02221A70DAE7FFF751
:1092B400BFFED7E710BD00BF8836002014F10300BD
:1092C400104B1B681B685A1E12F1030F18D8C3F306
:1092D4000B020AB10020704710B50B4AD36000237B
:1092E400137653760124147093600848FFF78AFFBD
:1092F4000749204601F054F8FFF79AFF204610BDB5
:1093040000207047A83600208836002055900200BF
:109314001993020008B50B78032B06D00B4B1B786E
:10932400012B06D0022B0BD008BD084B00221A7665
:10933400F4E7064B1B7E002BF6D1FFF779FFF3E72A
:109344000B78032BF0D1FFF773FEEDE7883600208E
:1093540000B585B0174BDB6818784FF6FF7203F53C
:109364008051184404F0DAFCF0B10246114BD9687C
:109374000B780B44984219D00E4B5B7E93B10E4B85
:1093840001208DF8000001920393042302930B4AF9
:10939400694601F017F858B90120064B187605B054
:1093A4005DF804FB064BEBE70120F8E70120F6E744
:1093B4000020F4E78836002060F30300A436002080
:1093C4005CF3030008B5104BDB681878002203F542
:1093D4008051184404F0A2FC08B1012008BD0A4BD6
:1093E400DA68137951795B1A03F57F2303F6FF7367
:1093F40002EB03339A4205D002F58052024BDA6045
:109404000320EBE70220E9E788360020F0B585B0B9
:10941400524BDE6872793379591E8A4200F0968085
:1094240006F580510D780D444D490968081D0F79E2
:1094340007449B1A03F57F2303F6FF731B0303F50D
:1094440080531E446B88013B9BB247F6FE629342F5
:109454005CD92C4616E07846FEF7AAF815E024F409
:109464007F6424F00F0404F5805423781C44A6423E
:1094740047D9A54247D26388013B9BB247F6FE62B7
:10948400934211D92388002BE5D0238804EB83036E
:1094940023F47F6222F00F029342E0D06288B2F597
:1094A400FE4FDCD01C46E2E725462FE07846FEF767
:1094B4007FF815E024F47F6424F00F0404F580544D
:1094C40023781C44A64220D9A5423BD26388013BA1
:1094D4009BB247F6FE62934211D92388002BE5D054
:1094E400238804EB830323F47F6222F00F02934268
:1094F400E0D06288B2F5FE4FDCD01C46E2E7254698
:1095040004E0002502E0002500E00025E5B1144B4D
:1095140019686A8801F58051384604F0FFFB074654
:10952400B8B101200D4B18768DF8000001950D4B54
:109534000393042302930C4A694600F043FF50B995
:109544002C46CAE70025E1E7012000E0012005B030
:10955400F0BD0120FBE70020F9E700BF88360020BA
:10956400A836002058F30300A43600202DE9F0416A
:1095740086B06A4B1B692BB1684B5B6933B14FF002
:10958400000848E07846FEF713F8F5E77846FEF75A
:109594000FF8F4E77846FEF70BF815E025F47F653D
:1095A40025F00F0505F580552B781D44AE421CD9D6
:1095B400AC421ED26B88013B9BB247F6FE629342DB
:1095C40011D92B88002BE5D02B8805EB830323F4DA
:1095D4007F6222F00F029342E0D06A88B2F5FE4F18
:1095E400DCD01D46E2E72C4600E000241CB10094C8
:1095F40045E00024FAE700230093019B002B68D187
:109604004FF0010824B1628847F6FF739A4202D1F1
:10961400424B01225A76414B5B7E002B7AD1B8F142
:10962400000F75D13D4B5A6922F47F6727F00F076D
:10963400BF1A07F580571C69DE68337972799B1A63
:1096440003F57F2303F6FF731B0303F580531E44C6
:10965400002301936388013B9BB247F6FE62934269
:10966400C5D92546ADE77846FDF7A2FF22E024F4EC
:109674007F6424F00F0404F5805423781C44A6422C
:10968400BBD92388019A02EB83029742B5D9009B88
:10969400634023F47F6323F00F03002BADD1638871
:1096A400013B9BB247F6FE618B42A6D80192238808
:1096B400002BD8D0238804EB830323F47F6222F0A9
:1096C4000F029342D3D06288B2F5FE4FCFD01C462E
:1096D400D5E7124A526901208DF808000392009AD6
:1096E400059204930E4A02A900F06CFE70B90B496E
:1096F400019B23F003024B6913444B6114B1074BE4
:109704001C617FE77846FDF753FFF8E7002002E08D
:10971400012000E0012006B0BDE8F0818836002079
:10972400A436002008B54FF010235B69B3F1FF3F66
:1097340003D04FF010235B6963B94FF08052516935
:10974400136903FB01F3A3F58053054A1360FFF784
:10975400B7FD08BD4FF010235B69A3F58053F2E712
:10976400A8360020024B1878003018BF012070473B
:109774008836002010B504460E4B1B78ABB923780D
:10978400032B02D07846FDF713FF0A4B9C60E26876
:10979400DA6000225A601A76012018705A76064957
:1097A40000F0FEFDFFF744FD10BD7846FDF700FF15
:1097B400E5E700BF8836002019930200014B1868C2
:1097C400704700BFA836002010B5044680B1636816
:1097D4001BB123680BB1A36813B97846FDF7E8FE03
:1097E400A3685A1E134207D10023E360236110BD0E
:1097F4007846FDF7DDFEEAE77846FDF7D9FEF3E7A4
:10980400F8B5F8B10446F9B18268FAB1EFF31085FE
:1098140072B6026980680244E668B24203D1C5B9EF
:1098240062B6042513E027686368013830401A469D
:1098340000FB037014F034FFE3680133E36055B9AF
:1098440062B604E00E2502E00E2500E00925284654
:10985400F8BD0425FBE70025F9E770B5F0B104462F
:109864008268EAB1EFF3108572B60669C26896425F
:1098740010D0084621686268A368013B1E4006FBBD
:10988400021108B114F00CFF23690133236165B997
:1098940062B606E03DB962B6052502E00E2500E099
:1098A4000925284670BD0525FBE70025F9E70000DA
:1098B400C0F30B0333BB39B301F6FF71090B134B30
:1098C4000222C3F80425114BD3F80034002BFAD03C
:1098D40000220AE00D4BC3F808050C4BD3F8003402
:1098E400002BFAD000F5805001328A42F2D3074BA4
:1098F4000022C3F80425054BD3F80034002BFAD01A
:1099040000207047102070470920704700E0014094
:1099140010F0030F2FD111F0030F2FD182B312F0E7
:10992400030F2FD110B49208174B0124C3F8044538
:10993400154BD3F80034002BFAD002E00430043184
:109944002246541E52B10B68B3F1FF3FF6D00360B8
:109954000D4BD3F80034002BFAD0EFE70A4B00216B
:10996400C3F80415084BD3F80034002BFAD0104682
:109974005DF8044B70471022104670471022FBE735
:109984000922F9E70922F7E700E0014001800023FA
:10999400438042607047000038B5124C4FF4805544
:1099A4002A460021204614F0A4FE0F4B1C600AE056
:1099B400002228212046FFF7E9FF238808332344A7
:1099C4006360303D1C46502DF2D8083D05D000227E
:1099D400A9B22046FFF7DAFF38BD7846FDF7E8FD67
:1099E400F5E700BFB0360020B046002008B50822D5
:1099F4000221084803F045FD38B1074A91684160E7
:109A0400127B027203F076FD08BD044803F090FE59
:109A1400FAE700BFBC46002008470020982E00202B
:109A24000E4B1B78CBB910B50D4B5C6804F5005494
:109A3400B4F1807F00D910BD04220121094803F04C
:109A440020FD30B14460054A0121117003F052FD3C
:109A5400F1E7054803F06CFEEDE770471C47002072
:109A640008470020BC460020882E002010B504467C
:109A740008B1A04710BD7846FDF79AFDF9E700004C
:109A840008B501210C4803F05DFD20B902210A4804
:109A940003F058FD28B1094803F04AFEFFF7C0FF60
:109AA40008BD074A0023136053609360D3601361B9
:109AB400044A1370F2E700BFBC460020B82E002011
:109AC40008470020E046002000B58DB004918DF8D1
:109AD400082003900CA8022300F82C3DFFF76CF833
:109AE4000DB05DF804FB000010B58CB00C4682B9D3
:109AF4004B88012B20D1134B1B7833B16268124B76
:109B04005A60104B00221A7016E07846FDF750FD9B
:109B1400F4E7032A12D12C22002101A814F0E9FD54
:109B240010238DF804300394084BDA6805921B69FE
:109B3400069301A8FFF740F80CB010BD7846FDF776
:109B440037FDE8E71C47002008470020BC460020FA
:109B540038B503F005FE28B901F0BAFE0028F8D0A4
:109B640020BFF6E701F0EAFD002211461A4803F08F
:109B7400E2FB00252C4605E0051D0246002116489F
:109B840003F0D9FB30B14388012BF5D0022BF4D17B
:109B9400041DF2E7A4B19DB12268104B9A602279AA
:109BA4001A73AC4201D9237993B12A680B4B1A601A
:109BB4000A4B1A685A60FFF733FF01F0DFFD38BD26
:109BC400064B00221A609A601A73FFF70FFFEFE743
:109BD400024B00221A60EBE7BC4600200847002035
:109BE40008B503F0FFFDA0F5805008BD00B587B0AF
:109BF4000023009301930293039304930593FFF7C7
:109C0400EFFF009001230193064B03936946064836
:109C140003F048FD10B907B05DF804FB034803F0F6
:109C240087FDF8E7ED9A0200BC460020A82E00202C
:109C340010B50B4B00241C605C609C60DC601C61F4
:109C440001F038F9074B5860074A9A60074ADA600E
:109C54001C615C61064B1C70FFF7C8FF10BD00BFA0
:109C640008470020E4460020AD9D020000879303CE
:109C74001D47002008B5084B1B7803B108BD0748F1
:109C8400074B036000F0FAFD064801F065F8024B4B
:109C940001221A70F2E700BFB8460020FC460020FB
:109CA400D99E0200E446002038B501F047FD174B69
:109CB4001B7B13BB154B9B7B23BB144B1A8A41F2B2
:109CC40082639A4204D8124B1B78A3B1012300E0AB
:109CD4000123CBB10D4D01232B7300242C82AB68DF
:109CE4000133AB60FFF782FEA9682A7B0139204665
:109CF400FFF7EAFE02E00023EBE7082401F03EFD53
:109D0400204638BD0824F9E70824F7E7084700206F
:109D14001D47002010B501F011FD214B5B7B9BB169
:109D24001F4B9B7BF3B91E4B1A8A41F282639A4202
:109D340004D81C4B1B782BB1012300E001239BB1F9
:109D4400012302E00023FAE700231C461BB3144B53
:109D540000225A731B7B4BB1012B0ED07846FDF7C2
:109D640027FC18E00023F0E70023EEE7FFF79CFF51
:109D740088B17846FDF71CFC0DE0094B0020186003
:109D840058601873188202469968FFF79DFEFFF722
:109D94002DFEFFF745FE01F0F1FC204610BD00BF8B
:109DA400084700201D47002008B5214B1B7B7BB1D1
:109DB400012B20D07846FDF7FBFB1D4A138A0133A3
:109DC40013821B4B5B8A13B1013B194A538208BDB2
:109DD400174B1A8A41F282639A4204D8154B1B78B6
:109DE4003BB1012300E00123002BE6D0FFF792FFF3
:109DF400E7E70023F8E70E4B1B8A41F282629342A5
:109E040004D80C4A127872B1012200E00122002A1F
:109E1400D3D042F2B012934207D9054B01225A73B0
:109E2400FFF778FFCDE70022F1E7FFF773FFC4E700
:109E3400084700201D47002038B5254B1B7B002B0D
:109E440036D10446224B5B8A33BB1AB9204B9B683C
:109E54008B4205D302B31E4B9B6801338B421BD24A
:109E64001B4B9B682A338B4224D3194B9B7B0BBB24
:109E7400174DA9602B606B602B8242F606526A82F2
:109E84006B732B73FFF7B2FDFFF7CAFD2A7BA9683A
:109E94002046FFF719FE0DE062B10D4B9B680133BC
:109EA4008B4207D10A4B01225A73FFF733FF01E0BB
:109EB400012B00D038BD002AFCD1054B9B688B4296
:109EC400F8D1034B01225A73FFF724FFF2E700BFD6
:109ED400084700200378042B00D0704743681B78A0
:109EE400002BFAD010B58468027E437E012A14BF89
:109EF40000220122416904F11000FFF79DFF10BD0B
:109F040010B5184B1A685B689A4225D20446154B63
:109F14001B7B012B13D0144B9A4212D2114B1A689B
:109F24005B68403B9A4214D2EFF3108072B60D4A3C
:109F34001368591C1160236090B962B610BD0B4BB5
:109F4400EAE7084B01225A73FFF7E4FE0028EBD13D
:109F5400E4E7FFF765FDE7E7FFF762FD0F20EDE7B4
:109F64000020EBE708470020FFFF7F0000E0FF0030
:109F740008B568B90C4B1B6893B10B4A1368013BD5
:109F8400136063B9094B00229A73FFF7C3FE06E01E
:109F9400064B01229A73044A13680133136008BD07
:109FA4007846FDF705FBE8E7B446002008470020A3
:109FB40000B58DB0ADF808008DF8102003910CA801
:109FC400032300F82C3DFEF7F7FD0DB05DF804FB0C
:109FD400014B9868704700BF08470020054B1B7B66
:109FE400012B02D0034B98687047024B98680138E4
:109FF400704700BF08470020044B9B68584010F08E
:10A00400010F00D0013B1846704700BF08470020ED
:10A01400014B187B704700BF0847002038B50A4B36
:10A024001B7873B9084B01221A70084DA860297374
:10A03400FFF7DCFC00242C606C60FFF7F1FC204689
:10A0440038BD0820FCE700BFE04600200847002098
:10A054002DE9F041002724E02449BC2303FB04F349
:10A06400CA5A0132CA520221284602F045FA013680
:10A074000221284602F010FA80B11C4ABC2303FBDB
:10A084000423D3F80880B8F1000FE5D0BC2303FB08
:10A0940004F3D25A01463846C047DDE78EB901378A
:10A0A400FFB2022F1FD83C46BC2303FB07F308333F
:10A0B4000E4D1D4404350221284602F0EDF9002618
:10A0C400DAE70021284602F07FFA0828E7D1074B97
:10A0D400BC2202FB0434A368002BE0D00022044914
:10A0E40038469847DBE70120BDE8F0812847002087
:10A0F4003CF1030008B5082383731023437300F174
:10A104001C0343610323037300F1180303610C3040
:10A1140002F02CFA08BD000008B50378012B06D024
:10A12400022B07D07846FDF743FA002001E04FF4F4
:10A13400A97008BD0048FCE7645E010008B5027818
:10A14400012A07D0022A13D07846FDF731FA4FF4DA
:10A15400FA7308E083685B1A98084FF4A97303FB49
:10A1640000F303F5FA730748984228BF184608BD60
:10A1740083685B1A180B044B03FB00F303F5FA73B3
:10A18400F1E700BFA0860100645E010010B504463B
:10A1940001210C3002F080F9A0B10D4AC4F89C20D2
:10A1A4000022C4F8A0206168FFF7C8FFC4F8A80023
:10A1B400C4F8AC40012384F8B83004F19C000AF0E0
:10A1C40025FE00B910BD7846FDF7F2F9FAE700BFA5
:10A1D400D5A20200F8B506460C4617461568037862
:10A1E400012B18D11249A1FB0431C9098900B468B3
:10A1F400641B8C4200D30C468CB1706825F00305B7
:10A20400F168224629442844FFF782FB58B93B6889
:10A214001C443C60F8BD7846FDF7CAF9E2E778468D
:10A22400FDF7C6F9E9E77846FDF7C2F9EFE700BFA5
:10A23400EB5DF260F8B507460C46164615680378E0
:10A24400022B16D1114BA3FB04231B0C1B03BC686C
:10A25400641B9C4200D31C467CB1786825F003053E
:10A2640021462844FFF724FB58B933681C44346062
:10A27400F8BD7846FDF79CF9E4E77846FDF798F9D0
:10A28400EBE77846FDF794F9EFE700BFB77609BB33
:10A2940038B505460C4611462378012B06D0022B0F
:10A2A4000FD07846FDF784F9002304E0021D204610
:10A2B400FFF790FFA3686868984214BF002001204C
:10A2C40038BD021D2046FFF7B5FFA368F3E7000081
:10A2D4002DE9F8430F46D1F8A850234B1B7863B9F6
:10A2E4000646A5F5FA7501F10C090121484602F06C
:10A2F400D3F8804640B1002422E00AF0C3FD0023D5
:10A3040087F8B830BDE8F8837846FDF751F9F2E7ED
:10A314000AF0B8FD0121484602F0EEF800237B6004
:10A3240087F8B830114B186801F06AFA3846FFF71D
:10A334002DFFE7E74046FFF7EFFE2044A8420CD884
:10A344002A1B41463846FFF7A3FF0028E0D100F05E
:10A35400B1FD841BEED5341AECE70AF093FD3846C0
:10A36400FFF714FFCEE700BF24470020204700205A
:10A3740010B5084801F024FA074B1860002406E0E1
:10A38400064BBC2000FB0430FFF7B4FE0134022C62
:10A39400F6D910BD55A00200204700202847002010
:10A3A40038B504460D46022805D8054BBC2202FBED
:10A3B4000434A56038BD7846FDF7FAF8F5E700BF28
:10A3C400284700202DE9F84306460C461746022884
:10A3D40016D8CCB12378012B1AD0022B3ED1636856
:10A3E400C3F30B03002B31D1A368C3F30B03002B7E
:10A3F40030D1A368002B34D17846FDF7D9F830E08A
:10A404007846FDF7D5F8E4E77846FDF7D1F8E1E7BB
:10A41400636813F0030F0DD1E36813F0030F0DD13C
:10A42400A36813F0030F0DD1A368D3B97846FDF7E1
:10A43400BFF816E07846FDF7BBF8EDE77846FDF780
:10A44400B7F8EDE77846FDF7B3F8EDE77846FDF7A2
:10A45400AFF8C9E77846FDF7ABF8CAE77846FDF7E9
:10A46400A7F8EFF3108872B6BC2505FB06F505F1D5
:10A474000803204D1D4404350021284602F00CF841
:10A48400814668B30021284602F036F820686168E6
:10A49400A268E368C9F80000C9F80410C9F80820E4
:10A4A400C9F80C302FB1134ABC2303FB06235B8885
:10A4B4003B80104ABC2303FB06235A8801325A808E
:10A4C40093F8B83073B90C4B1B780BB100200AE039
:10A4D400084BBC2000FB0630FFF758FE002002E0CA
:10A4E400042000E00020B8F1000F00D162B6BDE8FE
:10A4F400F88300BF284700202447002018B1830BAD
:10A50400024AD05C70470020704700BF4CF1030042
:10A5140012DF704700B583B01378A3B1042B14D1B4
:10A52400072110F8013C163B152B31D8DFE803F066
:10A5340059303030303030303030303030303030EE
:10A544003030302E0F3A517DEBE70021E9E7022944
:10A5540001D007291CD110F8021C013901F032FD89
:10A56400B0B1264B1B6813F0400F11D0244B1B686D
:10A57400012B0DDD234BD3F804350190224A0092C0
:10A584008A222249022002F077F901E0022902D04E
:10A5940003B05DF804FB10F8021C0139C9B210F0D5
:10A5A40037FCF5E70229F3D110F8021C0139C9B2CE
:10A5B40003F026FB0028EBD0104B1B6813F0400F70
:10A5C400E6D00F4B1B68012BE2DD0E4BD3F80435AC
:10A5D40001900F4A00929D220C49022002F04CF98E
:10A5E400D6E701884FF6E4639942D1D110F8021CF2
:10A5F40003390230FCF72CFFCAE700BFD82E002035
:10A60400D42E002000B00040DCF10300CEF10300A2
:10A6140008F2030070B58AB00BF04EF958B3064641
:10A6240000238DF8103005AC05460FCD0FC42B6800
:10A634002360727D052A04D9337D03F00F03072BB1
:10A6440020D1184B1B689BB104AB0393337DC3F338
:10A6540003038DF80430737D062B1DD9063B8DF85A
:10A66400053006F11D0302930E4B1B6801A89847A1
:10A6740030460BF001F90BF039F980F00100C0B25B
:10A684000AB070BD307D04AB063A06F11D0100F03E
:10A694000F0009F021FFD4E700238DF80530029361
:10A6A400E2E700BF6049002070B582B02F4B1B78F1
:10A6B400002B52D1002854D0067A0F2E01D0072E39
:10A6C40051D10446C06870B1FCF784FF0DF1070056
:10A6D400FFF71EFF0546002840D19DF80730012BE7
:10A6E40004D002253AE0FCF783FFEFE7FCF796FF7E
:10A6F40000F020FB304600F0E9FFE07800F03EF97E
:10A7040000F0F8FE0AF050FB19480BF08BF90AF040
:10A7140081F8FFF72DFE04F083FA00F03BFD05F00D
:10A72400C3F8204601F0B6FB2046FDF789FF03F08D
:10A7340023FE2046FFF730F9FCF78AFE18B10628FD
:10A7440001D005460AE00B4809F0A8FE0A4B002296
:10A754001A60064B01221A7000E00825284602B050
:10A7640070BD0E25FAE70725F8E700BF5D49002014
:10A7740019A60200C82E00206049002030B583B01D
:10A78400204B1B78002B35D01F4B1B78002B33D16B
:10A7940000F0D6FEC0B90AF029FB044668BB0BF0F2
:10A7A40055F801F089FBFCF753FE0546F0B1062885
:10A7B4001CD0164B1B6813F4804F21D0144B1B681C
:10A7C400012B05DC044618E07846FCF7F1FEE2E7CD
:10A7D400104BD3F8043501900F4A00924FF4C47221
:10A7E4000E49022002F048F82C4606E0064B0122EE
:10A7F4001A7002E0082400E00824204603B030BDAB
:10A804000446FAE75D4900205C490020D82E002068
:10A81400D42E002000B0004068F10300CEF1030004
:10A8240030B583B004460D460E4B1B6813F4804FBD
:10A8340003D00D4B1B68062B05DC29462046FDF78B
:10A8440067FF03B030BD094BD3F80435084A0192C1
:10A85400084A00924FF4D7720749072002F00CF817
:10A86400EBE700BFD82E0020D42E002000B000401B
:10A8740050F1030030EA0300CEF1030008B5FEF7FF
:10A88400C3F908BD08B500F00BFE002008BD7047F1
:10A89400064A136801331360B3F1704F02D0034BBF
:10A8A40018687047134601221A60F8E764490020CB
:10A8B40010B5044618B100232360636010BD7846C8
:10A8C400FCF776FEF7E738B50C46054668B184B167
:10A8D40000236360EFF3108372B62A686AB16A6872
:10A8E40054606C6003B962B638BD7846FCF760FE0C
:10A8F400EDE77846FCF75CFEEAE72C60F1E710B57B
:10A90400044658B1EFF3108372B6206808B1426868
:10A914002260226832B103B962B610BD7846FCF7F2
:10A9240047FEEFE76260F6E710B5044608B1206819
:10A9340010BD7846FCF73CFEF9E735DF70473CDF95
:10A944007047000010B504464FF0FF30FFF7F5FFE5
:10A954004FF0FF312046FFF7F2FFBFF34F8F054959
:10A96400CA6802F4E062044B1343CB60BFF34F8F19
:10A9740000BFFDE700ED00E00400FA05072814D845
:10A98400DFE800F0080C1504110F0A066420704774
:10A9940014207047FA2070471E2070474FF4FA7055
:10A9A4007047322070474B207047FA20704796203A
:10A9B40070470000024B5868103840B2704700BF1F
:10A9C40000ED00E0034600280FDB5B11084A52F853
:10A9D4002330424200F01F0002F01F0258BF5042D1
:10A9E40023FA00F000F00100704700F11F03ECE7C8
:10A9F40000E100E046DF7047F8B504460D464B1E03
:10AA0400DBB2012B09D8002222616261A261E261FA
:10AA14002046FFF7EFFF012616E07846FCF7C8FD55
:10AA2400F1E7CA5CC8185200D2B2407842EAD012A8
:10AA3400CA5401339BB20E2BF3DDCB7B5B00CB738B
:10AA4400002F08DB0136F6B2AE420BD8214611F9CD
:10AA5400207F0023EFE794F82F3083F0870384F8F6
:10AA64002F30EFE7F8BD2DE9F04190B084460C4655
:10AA740096461F4602F10F0636111FFA86F804ADFA
:10AA84000068DCF80410DCF80820DCF80C300FC592
:10AA94000EF00F05B8F1000F02D085B1002300E0DD
:10AAA400002398466BB1012104A8FFF7A5FFB8F174
:10AAB400000F1BD0B0B20138000110230EE00123B7
:10AAC400EFE70221F0E7013B9BB22218D25C10A908
:10AAD400194411F8101C4A400DF80320002BF2D140
:10AAE40000250C950D950E950F9534E0B1B2013902
:10AAF400ADB22A4604EB0111684613F0D1FD802360
:10AB04000DF805306B1C03E000220DF8032001331F
:10AB14000F2BF9DD10230AE0013B9BB21DF8032043
:10AB240010A9194411F8101C4A400DF80320002BF9
:10AB3400F2D1D5E7013B9BB210AA1A4412F8102CAB
:10AB44002118C95C4A4008A9CA54002BF2D104A8B0
:10AB5400FFF750FF0135B3B2013BAB4202DD2801E0
:10AB64001023F2E710230AE0013B9BB210AAD1188C
:10AB740011F8402C11F8101C4A4008A9CA54002BA3
:10AB8400F2D104A8FFF736FF0CAC0FCC3860796023
:10AB9400BA60FB6010B0BDE8F08100000A4B1B688E
:10ABA400834207D0084B1B6853B15A69824205D0CF
:10ABB4001346F9E74269044B1A6001E042695A619D
:10ABC40000230370704700BF6C49002010B5044691
:10ABD400134B1B684BB14068114B1B685B68C31A6D
:10ABE400002B02DB0E4B19680DE00D4B1A686261F5
:10ABF4001C600B4A938801339BB2938063B1012399
:10AC0400237010BD19464B691BB15A68121A002AE9
:10AC1400F8DB63614C61ECE77846FCF7C9FCEEE7CE
:10AC24006C49002038B5054619E06369214A136070
:10AC34000023636193889BB2591E89B291800BB340
:10AC4400A3681BB302232370A3682169284698478D
:10AC540000F030F905462378DBB2022B1AD0154BED
:10AC64001B6833B3134B1B685B685B1B642B20D5D9
:10AC7400104B1C682378DBB2012BD6D07846FCF746
:10AC840097FCD2E77846FCF793FCD9E77846FCF7C3
:10AC94008FFCD7E7E26812B900232370DFE763680B
:10ACA400134463605B1B642BF9D42046FFF78EFFCB
:10ACB400D5E738BD6C49002008B5124B1B6873B149
:10ACC400104B1B685B68C31A13F1640F08D402238A
:10ACD4000D4A00F16401012000F0B0F870B908BD1C
:10ACE400084B19680223084A4968012000F0A6F8B5
:10ACF4000028F4D07846FCF75BFCF0E77846FCF7D4
:10AD040057FCECE76C49002029AD020008B500F0BF
:10AD1400D1F8FFF787FF00F0CDF8FFF7CDFF012052
:10AD240008BD000008B5024B186800F069FD08BDB5
:10AD34006849002008B5054B00221A605A6004488F
:10AD440000F03EFD034B186008BD00BF6C490020B5
:10AD540011AD02006849002010B5044600F024FE3D
:10AD640080B19CB1A368ABB12378DBB2012B15D0C1
:10AD7400002363612046FFF729FF00F09BF8FFF7EB
:10AD84009BFF10BD7846FCF713FCEAE77846FCF716
:10AD94000FFCE7E77846FCF70BFCE5E77846FCF7A1
:10ADA40007FCE5E710B5044600F0FEFD50B16CB1B8
:10ADB4002046FFF7F3FE0023636100F07BF8FFF702
:10ADC4007BFF10BD7846FCF7F3FBF0E77846FCF711
:10ADD400EFFBEDE738B504460D4600F0E5FD70B134
:10ADE4008CB12046FFF7DAFE0023636165602046DC
:10ADF400FFF7ECFE00F05EF8FFF75EFF38BD784623
:10AE0400FCF7D6FBECE77846FCF7D2FBE9E7000059
:10AE140010B4094B00F15002002443F8224000F121
:10AE240010040122A240C3F8042300F5A87043F8DB
:10AE340020105DF8044B704700800040022825D89C
:10AE440038B533F0030423D1EFF31084124D2C6092
:10AE540072B6124C44F82020114A42F82010114ACC
:10AE64001354114B002243F82020104B1B7833B1AC
:10AE74000F4B1B68CA1A07D41146FFF7C9FF064BCC
:10AE8400186838B962B604E05A1AF5E70720704723
:10AE94000A2038BD0020FCE79849002078490020AA
:10AEA4008C49002074490020A049002084490020D6
:10AEB40088490020EFF310830C4A136072B60C4BE0
:10AEC4001B787BB10B4B0022C3F84C210122DA64BE
:10AED400D3F84C05084B1B681844044B1B6803B992
:10AEE40062B67047054B1868F7E700BF9849002021
:10AEF4008449002000800040884900209C490020AB
:10AF040070B5002418E01F4B002243F824200123CD
:10AF140003FA05F51C4BC3F80853FFF7CBFF1B4B93
:10AF24001B5D13F0020F21D0B04704F15003164A01
:10AF3400002142F823100134022C21D804F15003DB
:10AF4400114A52F82330002BF5D0D2F8043304F11F
:10AF54001005EB4013F0010FEDD00A4B53F82460B9
:10AF6400002ED0D17846FCF723FBCCE701463046CF
:10AF740000F0D0FB0028D8D07846FCF719FBD4E7C2
:10AF840070BD00BF78490020008000407449002053
:10AF940070B50546002414E0981A27E05E1A29E0EB
:10AFA4002946184600F0B6FB002836D12A4B53F840
:10AFB40024302BB101221A60274B002243F82420AD
:10AFC4000134022C3AD8254B04F5A872002143F829
:10AFD400221004F1500243F8221053F82230204B7F
:10AFE40053F824201F4B1B68D01AD5D405F17801DF
:10AFF400CE1AD3D4864214D91B4B53F82430002BD9
:10B00400D4D0194A002142F82410184A125D12F0D3
:10B01400020FC5D028469847C8E77846FCF7C8FA17
:10B02400C4E7114B53F82430002BC9D0E0B2511BB4
:10B0340002D4FFF7EDFEC3E7A91AFAE70C4B1B682D
:10B044001BB90C4B4FF480721A60064B1D600A4BFF
:10B0540001221A7070BD00BFA0490020008000408A
:10B064008C49002088490020784900207449002038
:10B074009849002000E100E084490020002300E01A
:10B084000133022B0ED80F4AD25C12F0010FF7D015
:10B0940000220C49CA540C4941F823200B4941F8B9
:10B0A4002320EDE70A4B18600A4B00221A700A4B62
:10B0B4004FF0FF32C3F80823084B4FF48072C3F8F3
:10B0C400802170477449002078490020A04900205D
:10B0D4009C490020844900200080004000E100E0F9
:10B0E40030DF704731DF704710B402684368A2EB69
:10B0F4007312846883EAF4330360C1680C444460C7
:10B10400114481601344C36018465DF8044B7047D2
:10B1140070B582B00D46064608B100240BE07846AF
:10B12400FCF746FAF9E79DF807103019FFF7DAFF44
:10B134009DF807301C44A5420DD90DF10700FFF717
:10B14400CFFF9DF80730002BF7D02A1B9342EAD992
:10B154008DF80720E7E702B070BD000030B583B07A
:10B164000546002402A840F8044D0421FFF7D0FF4F
:10B17400074B2B60019B6B60AB60EB6003E02846E0
:10B18400FFF7B2FF0134132CF9D903B030BD00BF6F
:10B19400ED5EEAF1704748DF704749DF70474ADFE8
:10B1A400704700002DE9F00F1F4BD3F8046500270A
:10B1B400837AA3BB1D4BD3E90023B41A24F07F4A3E
:10B1C4004FF0000B4FEA4A124FEA4B13B2EB0A025C
:10B1D40063EB0B03590241EAD2514FEA422C0D466C
:10B1E4001CEB0A0145EB0B024FEA821949EA91690B
:10B1F4004FEA81181346B8EB010269EB03031AEB1B
:10B2040002044BEB0305E30B43EA45424368134452
:10B214004360064BC3E90067BDE8F00F70470023A5
:10B2240083720268F2E700BF00B00040104A0020B9
:10B2340010B504460023C3600361FFF7B3FF23681E
:10B24400084A926822600121217503B9064B991AB4
:10B25400A161B1F57A7F01D39A4202D94FF47A738E
:10B26400A36110BDF849002080969800094B032281
:10B274001A75094A9A611A6840F6D8639A4204D842
:10B28400054B40F6D8629A607047034B43F2B062B4
:10B294009A607047D8490020F849002008B50B4B44
:10B2A4001B78012B05D0022B0BD07846FCF780F9D4
:10B2B40003E00223037501238372044B00221A70F6
:10B2C40008BD03230375024B8361F6E7094A002096
:10B2D400F849002038B5054600240475012343725B
:10B2E4004068FFF755FE09F039FE6B682A6813447D
:10B2F4000A490968283101FB02F1094AA2FB01212C
:10B30400A3EB91410323074A78392046FFF796FDC2
:10B3140000B938BD7846FCF74BF9FAE7F449002048
:10B3240083DE1B4371B2020010B50C4631B10369D0
:10B33400013303618269036813440360C368013302
:10B34400C36001220275826952088261012B0DD00B
:10B35400022B19D082690368134417498B4222D8FF
:10B3640040F6D7639A4221D800231DE0B2F5FA7F54
:10B3740005D040F6D8639A42ECD88361EAE7002C02
:10B38400F7D100238361E5E70369022B06D0012B83
:10B39400E0D1002CDED100238361DBE70268064B99
:10B3A4009B1A8361D6E7002313B110BD0123FBE789
:10B3B400FFF790FFF9E700BF80969800437A1BB926
:10B3C4000E4B00221A70704710B5044609F0E2FDD6
:10B3D4006068226810440A4B1B68283303FB02F39D
:10B3E400084AA2FB0323A0EB93407838FFF746FEFC
:10B3F40000236372014B00221A7010BD084A00201A
:10B40400F449002083DE1B4308B5224B01221A7243
:10B41400214B1B7813B1214B1B781BB31D4B00220E
:10B424001A7504281AD8DFE800F00314110C070079
:10B434001848FFF7FDFE1EE001211648FFF774FFD0
:10B4440019E000211348FFF76FFF14E009F040FDF5
:10B4540011E0FFF755FD09F06FFD0CE07846FCF7AD
:10B46400A7F808E0FFF726FD0A4B5A68801A18600F
:10B474001846FFF713FF074B1B7D023BDBB2012B82
:10B4840004D9044800230372143008BD0148FFF7AF
:10B4940095FFF6E7D8490020094A0020084A002011
:10B4A40008B5043803280DD8DFE800F00D190902A7
:10B4B400FFF773FE30B17846FCF77AF802E078467D
:10B4C400FCF776F808BD0A4840F6D8638360FFF7B6
:10B4D40066FE0028F6D07846FCF76AF8F2E70448DE
:10B4E400FFF75DFE0028EDD07846FCF761F8E9E748
:10B4F400F849002010B40D4A002313701371012180
:10B50400517143F2B064946043F69824D460084ABD
:10B514001060084A1370084A1370084A1372537271
:10B524001360917253605DF8044B7047F849002032
:10B53400F4490020084A0020094A0020D849002084
:10B5440008B50648FFF727FE034608B1184608BDAC
:10B554000348FFF724FE0346F8E700BF0DB40200DA
:10B56400F8490020084B1B7D032B09D0074B1B789F
:10B57400012B07D0022B01D0002070470120704717
:10B584000120704701207047D8490020094A002053
:10B59400014B5868704700BFD84900200E4B5B7AB6
:10B5A4000BB90020704710B50B4B5C681A68144443
:10B5B4000A4B1B68283303FB02F3094AA2FB03234B
:10B5C400A4EB9344783CFFF775FC0346201A00D49F
:10B5D40010BD181BFCE700BFD8490020F449002027
:10B5E40083DE1B43014B187A704700BFD849002003
:10B5F400EFF3108372B6054A527A22B1044A4FF42B
:10B604008071C2F8001103B962B67047D8490020AE
:10B6140000E100E008B5034B01221A70FFF7E8FFD0
:10B6240008BD00BF094A002008B5094B1B782BB19F
:10B6340048B9084B1B7813B1012300E00023044AE6
:10B64400107013B908BD0023F9E7FFF7D1FFF9E73C
:10B65400084A0020094A002008B50378012B10D0BD
:10B6640013B1022B06D008BD4368002BFBD08068C1
:10B674009847F8E74368002BF5D0C168806898477D
:10B68400F1E74368002BEED080689847EBE70000B1
:10B69400044B1B780F2B04D0034B4FF48022C3F8C8
:10B6A400002170475C4B002000E100E010B501462A
:10B6B4000548FEF7A5F820B90446FFF7E9FF204640
:10B6C40010BD0424FBE700BF184A002010B50C4C41
:10B6D40020700C480C4B0360102343608360FEF71A
:10B6E40073F80A48FFF7E4F823780F2B07D05B01BF
:10B6F400DBB2074A82F812334FF48023136010BD83
:10B704005C4B0020184A00202C4A0020604B00208B
:10B7140000E100E030B585B00C46054648B1002391
:10B724008DF80030019502946846FFF7BFFF05B01D
:10B7340030BD7846FBF73CFFF1E7000010B5EFF3AE
:10B74400108472B60A490A68531C0B6042B9094A4C
:10B7540012780F2A04D0084A4FF48021C2F88010CE
:10B7640013B104B962B610BD7846FBF721FFF8E7C0
:10B774002C4B00205C4B002000E100E010B5EFF3FF
:10B78400108472B60B4B1B687BB10A4A1368013BE9
:10B7940013603BB9084B1B780F2B03D0074B4FF4B6
:10B7A40080221A6004B962B610BD7846FBF700FF28
:10B7B400EBE700BF2C4B00205C4B002000E100E0D5
:10B7C40010B5044680B10C4B1B68082B10D8EFF35E
:10B7D400108372B6084A1068411C1160074A42F887
:10B7E400204003B962B610BD7846FBF7E1FEEAE7F4
:10B7F4007846FBF7DDFEEAE7304B0020344B0020AF
:10B8040038B504460D4B1B68834213D9EFF31085FA
:10B8140072B661090A4A04F01F04012303FA04F40E
:10B8240052F82130234342F82130FFF731FF05B9A4
:10B8340062B638BD7846FBF7BBFEE7E7304B002025
:10B84400584B002070B50D461646044658B175B1E4
:10B85400EFF3108372B6A560E660002222742460C0
:10B8640003B962B670BD7846FBF7A2FEEFE77846EF
:10B87400FBF79EFEECE7000038B5044690B1A368E0
:10B88400A3B1EFF3108572B6237C9BB90123237413
:10B8940021460948FFF717F8FFF7FAFE002005B91B
:10B8A40062B638BD7846FBF783FEE8E77846FBF7D7
:10B8B4007FFEE6E71120F2E7604B002010B5044656
:10B8C40008B1207C10BD7846FBF772FEF9E7000052
:10B8D40070B584B02C4B1B7823B901252A4B1D70FD
:10B8E40000240AE07846FBF763FEF6E7274B53F89B
:10B8F400243098470646F0B10134254B1B68A34217
:10B904001ED96109234A52F8213004F01F00C340B4
:10B9140013F0010FF0D0EFF3108372B6012606FA8C
:10B9240000F052F8216026EA000642F82160002B5C
:10B93400DCD162B6DAE72046FFF762FF3546DBE783
:10B944001548FEF7DCFF07E0A368E068984700238A
:10B9540023741148FEF7D3FF50B10468237C002BF5
:10B96400F2D17846FBF724FEEEE76846FFF774FE53
:10B9740069460A48FDF771FF0028F6D0024B002201
:10B984001A70284604B070BD684B0020344B002068
:10B99400304B0020584B0020604B0020184A0020F8
:10B9A40008B5FFF795FF08BD00B583B0FFF702F8AF
:10B9B4008DF807009DF807305BB213F1100F18D013
:10B9C4009DF807305BB2002B21DB03F1604303F5E4
:10B9D400614393F800335B090093154B1B78009A7D
:10B9E400934220D0009A934217D3002003B05DF80D
:10B9F40004FB0F4B1B780F2B07D01220FEF7E2FF3E
:10BA040008B90120F2E70020F0E70120EEE703F097
:10BA14000F03084AD35C5B09DEE71220FEF7D2FF6E
:10BA240018B10020E2E70120E0E70120DEE700BFD3
:10BA34005C4B002014ED00E046DF704770B58CB01D
:10BA440003460E4615466C46006859689A68DB68DA
:10BA54000FC430687168B268F3680FC46846FFF7B2
:10BA6400EBFF08AC0FCC28606960AA60EB600CB0F7
:10BA740070BD08B5FEF7F7FF08BD08B501F089FFF2
:10BA840008BD08B501F0BFFF08BD38B5032900F2B1
:10BA94009380DFE801F0023535671970817A5A78AE
:10BAA40061F306025A70C17AD2B261F3C7125A70B6
:10BAB400C168C1F3074201F47F442243090401F43D
:10BAC4007F010A4300219A70C2F30724DC70120C30
